:100000000C9434000C9451000C9451000C94510049
:100010000C9451000C9451000C9451000C9451001C
:100020000C9451000C9451000C9451000C946800F5
:100030000C9451000C9451000C9451000C945100FC
:100040000C9451000C9451000C9451000C945100EC
:100050000C9451000C9451000C9451000C945100DC
:100060000C9451000C94510011241FBECFEFD8E026
:10007000DEBFCDBF11E0A0E0B1E0E2E4F1E002C0FC
:1000800005900D92A230B107D9F711E0A2E0B1E0DE
:1000900001C01D92A430B107E1F70E9453000C94F7
:1000A0009F000C9400008FEF84B987B98AB98CE067
:1000B000809381008AEF90E090938900809388007C
:1000C00082E080936F008CE1809303017894FFCFEE
:1000D0001F920F920FB60F9211248F939F939091BE
:1000E000000180910301891720F085B190E28927F2
:1000F00085B980910001823099F0809100018F5F75
:1001000080930001809100018F3118F081E080938D
:1001100000019F918F910F900FBE0F901F90189527
:1001200080910201882339F08BB194E089278BB943
:1001300010920201E2CF81E080930201DECFF894B9
:02014000FFCFEF
:020142000100BA
:00000001FF
